:10000000FAC0000029C1000027C1000025C100007E
:1000100023C1000021C100001FC100001DC100005C
:100020001BC1000019C1000017C1000015C100006C
:1000300013C1000011C100000FC100000DC100007C
:100040000BC1000009C1000007C1000005C100008C
:1000500003C1000001C10000FFC000000C9479261C
:10006000FBC000000C948A210C946121F5C00000B3
:10007000F3C00000F1C00000EFC00000EDC00000C0
:10008000EBC00000E9C00000E7C00000E5C00000D0
:10009000E3C00000E1C00000DFC000000C94C021FC
:1000A000DBC00000D9C00000D7C00000D5C00000F0
:1000B000D3C00000D1C00000CFC00000CDC0000000
:1000C000CBC00000C9C00000C7C00000C5C0000010
:1000D000C3C00000C1C00000BFC00000BDC0000020
:1000E000BBC00000EB24EE24DD24E124E52425251B
:1000F000F224F624FC24002504250A250E251225C9
:10010000252518251C252025000022002500280073
:100110002B002E003100340002010000050108010F
:100120000B0105050505070508080808020202027B
:100130000A0A080804040404010101010101010183
:100140000303030303030303040707070C0C0C0C4E
:100150000C0C0C0C02020202060606060606060637
:100160000B0B0B0B0B0B0B0B0102102020080810C4
:100170002040102040800201020108040201010217
:1001800004081020408080402010080402018004F0
:10019000020180402010080402010804020101024B
:1001A0000408102040800102040810204080000054
:1001B0000A0B02090C0D0E080703040100000000E1
:1001C000000000000000000000000000000000002F
:1001D00000000000000000000000121110000000EC
:1001E000000000000000000000000000000000000F
:1001F000000000001B2C11241FBECFEFD1E2DEBF98
:10020000CDBF00E00CBF15E0A0E0B2E0ECE7F1E606
:1002100000E00BBF02C007900D92A03AB107D9F7DA
:100220002EE0A0EAB5E001C01D92A130B207E1F7CF
:1002300010E0CBEFD0E000E006C021970109802F4D
:10024000FE010E94752FCA3FD10780E00807A9F779
:100250000E94C3260C94BC30D3CE539A089580E0FC
:1002600090E00895FC01858596850895CF93DF93EE
:1002700000D000D0CDB7DEB7AB011C821D821E823C
:10028000DC01ED91FC910190F081E02D19821A8240
:100290001B829E012F5F3F4FBE016C5F7F4F199500
:1002A00026960FB6F894DEBF0FBECDBFDF91CF917B
:1002B00008954F925F926F927F928F929F92AF922A
:1002C000CF92DF92EF92FF920F931F93CF93DF9322
:1002D000EB010F962C010E94EB23F894E881F98141
:1002E0000BB108601BB1177F1BB9C9848E814C2DDF
:1002F000481B842F4E839F846A807B80FC84ED841E
:10030000DE84F394E394D3949F8138858A84AB840C
:100310004081D30120E0622F722F7081442788949E
:100320007111780F08F47FEF81958894F0FC470FE6
:1003300047958894F1FC470F47958894F2FC470F46
:1003400047958894F3FC470F47958894F4FC470F32
:1003500047958894F5FC470F47958894F6FC470F1E
:1003600047958894F7FC470F47958894272FF110FD
:10037000242F8C0D422F002C0BB900C047FF1BB956
:1003800071812227889400C000C0002C1BB9711114
:10039000790F00C0002C0BB900C046FF1BB908F450
:1003A0007FEF9195889400C000C0002C1BB9E0FC41
:1003B000270F00C0002C0BB900C045FF1BB92795C3
:1003C0008894E1FC270F00C000C0002C1BB92795C2
:1003D000889400C0002C0BB900C044FF1BB9E2FC9C
:1003E000270F2795889400C000C0002C1BB9E3FCA0
:1003F000270F00C0002C0BB900C043FF1BB9279585
:100400008894E4FC270F00C000C0002C1BB927957E
:10041000889400C0002C0BB900C042FF1BB9E5FC5A
:10042000270F2795889400C000C0002C1BB9E6FC5C
:10043000270F00C0002C0BB900C041FF1BB9279546
:100440008894E7FC270F00C000C0002C1BB927953B
:10045000889400C0002C0BB900C040FF1BB9472F87
:10046000E110422F980D00C000C0002C1BB900C045
:1004700000C0002C0BB900C047FF1BB972812227B6
:10048000889400C000C0002C1BB97111730F00C00C
:10049000002C0BB900C046FF1BB908F47FEFE90D33
:1004A000F11D00C000C0002C1BB9D0FC270F00C0FC
:1004B000002C0BB900C045FF1BB927958894D1FCCF
:1004C000270F00C000C0002C1BB92795889400C0DE
:1004D000002C0BB900C044FF1BB9D2FC270F279595
:1004E000889400C000C0002C1BB9D3FC270F00C0AB
:1004F000002C0BB900C043FF1BB927958894D4FC8E
:10050000270F00C000C0002C1BB92795889400C09D
:10051000002C0BB900C042FF1BB9D5FC270F279553
:10052000889400C000C0002C1BB9D6FC270F00C067
:10053000002C0BB900C041FF1BB927958894D7FC4C
:10054000270F00C000C0002C1BB92795889400C05D
:10055000002C0BB900C040FF1BB9472FD110422F10
:10056000319500C000C0002C1BB93A0D00C000C07E
:100570000BB900C047FF1BB970812227889400C0C7
:1005800000C0002C1BB97111780F00C0002C0BB9F2
:1005900000C046FF1BB908F47FEF8195889400C026
:1005A00000C0002C1BB9F0FC270F00C0002C0BB9B9
:1005B00000C045FF1BB927958894F1FC270F00C0A8
:1005C00000C0002C1BB92795889400C0002C0BB9E3
:1005D00000C044FF1BB9F2FC270F2795889400C088
:1005E00000C0002C1BB9F3FC270F00C0002C0BB976
:1005F00000C043FF1BB927958894F4FC270F00C067
:1006000000C0002C1BB92795889400C0002C0BB9A2
:1006100000C042FF1BB9F5FC270F2795889400C046
:1006200000C0002C1BB9F6FC270F00C0002C0BB932
:1006300000C041FF1BB927958894F7FC270F00C025
:1006400000C0002C1BB92795889400C0002C0BB962
:1006500000C040FF1BB9472FF110422F8C0D00C086
:1006600000C0002C1BB9119709F086CE20EE31E0B6
:10067000D3010E947D2FDC01CB01F4E0B695A79554
:1006800097958795FA95D1F720E030E0B901EAE92E
:100690006E9E060C611D7E9E600D711D1124670DFE
:1006A000711D860F971FA11DB11D893E43E0940760
:1006B000A105B10508F434C0885E9340A109B109D1
:1006C00042E0B695A795979587954A95D1F747E06B
:1006D000849F080E211D949F200D311D1124290F88
:1006E000311D60919A0670E0860F971F820F931F4D
:1006F00040912307509124076091250770912607A8
:10070000292F3327420F531F611D711D409323076B
:1007100050932407609325077093260780939A06C9
:100720007894C201DF91CF911F910F91FF90EF90CC
:10073000DF90CF90AF909F908F907F906F905F9061
:100740004F900C94E2230F931F93CF93DF93CDB779
:10075000DEB762970FB6F894DEBF0FBECDBF8C0137
:10076000F901DC011C968C917A8369835C834B834D
:100770005E834D8390819D8791819E8792819F8723
:10078000813029F4CE0101960E94A32306C01C8665
:100790001B861A86198618861F82188A1A8A198A51
:1007A000D801ED91FC910484F585E02DBE016F5FC9
:1007B0007F4FC801199562960FB6F894DEBF0FBE41
:1007C000CDBFDF91CF911F910F9108950F931F938C
:1007D000CF93DF93CDB7DEB762970FB6F894DEBF45
:1007E0000FBECDBF8C01F901DC011C968C917A8380
:1007F00069835C834B835E834D8390819D87918168
:100800009E8792819F87813029F4CE0101960E94B4
:10081000A32306C01C861B861A86198618861F828B
:1008200083E0888B1A8A198AD801ED91FC9104849F
:10083000F585E02DBE016F5F7F4FC8011995629667
:100840000FB6F894DEBF0FBECDBFDF91CF911F91E1
:100850000F9108958091AB0590E02091AC05821B2B
:10086000910906972CF08BEC97E00E942521F2CF9E
:100870008BEC97E00E942521809329078BEC97E071
:100880000E94252180932A078BEC97E00E94252166
:1008900080932B078BEC97E00E94252180932C07F7
:1008A0008BEC97E00E94252180932D0708954F92AD
:1008B0005F926F927F928F929F92AF92BF92CF92F0
:1008C000DF92EF92FF920F931F93CF93DF9300D0AD
:1008D00000D0CDB7DEB77C014B0109831A832B838F
:1008E0003C834D835E83C980DA80AB80BC800D8100
:1008F0001E810E945925D70152964D905D906D90B2
:100900007C9055979B01AC0124193509460957097C
:100910001C964D905D906D907C901F972415350529
:100920004605570508F491C0F701628B738B848BE1
:10093000958BF601EE0FFF1FEC0DFD1DE80DF91D67
:10094000C60150E08A159B05BCF4D70150963C9136
:100950002081251B08F420E02083432F440F2181B0
:10096000241B08F420E021832281231B08F420E0CB
:10097000228301963396E6CFF701808D918D18166C
:10098000190614F401975EC0C5018C199D09B801C0
:100990000E94622F238586899789222321F001975F
:1009A000978B868B04C00196F701978B868BD701B6
:1009B00056968D919C91579797FF07C0615071098A
:1009C00057967C936E93569706C0861797071CF030
:1009D000F701178A168AD70156962D913C915797A1
:1009E000029FC001039F900D129F900D11248C0D4A
:1009F0009D1D080F191FFC01EE0FFF1FE80FF91FC7
:100A0000E80DF91D9C015FEF48E7201731073CF422
:100A10001082518342832F5F3F4F3396F6CF8C1560
:100A20009D0529F4F7018385811109C010C00A15BD
:100A30001B0581F4D7011B968C9181110CC085E0B8
:100A400090E0F701918F808F05C080E004C00A1507
:100A50001B05A9F381E026960FB6F894DEBF0FBE02
:100A6000CDBFDF91CF911F910F91FF90EF90DF905D
:100A7000CF90BF90AF909F908F907F906F905F903E
:100A80004F9008954F925F926F927F928F929F92B4
:100A9000AF92BF92CF92DF92EF92FF920F931F938C
:100AA000CF93DF93CDB7DEB72D970FB6F894DEBFA7
:100AB0000FBECDBF7C016B010C831D832E833F8352
:100AC00048875987088519850E9459254B015C0183
:100AD000F70184899589A689B789A5019401281B06
:100AE000390B4A0B5B0BCA01B9010E943E2E2B0148
:100AF0003C0120E030E048EC52E4D70116966D91BD
:100B00007D918D919C9119970E94A52D20E030E058
:100B100040E85FE30E943D2D6A877B878C879D8735
:100B2000F70162817381848195810E943E2E9B0131
:100B3000AC016A857B858C859D850E94F02E9B018A
:100B4000AC01C301B2010E94A12D87FD93C0D70162
:100B500054968D929D92AD92BC9257971C966D9033
:100B60007C901D9750968D919C91519745E0489FA0
:100B70009001499F300D1124019651969C938E93BC
:100B8000509752964D915C9153978417950724F096
:100B900051961C921E925097AC80BD80620E731EBF
:100BA00020EA522E99249A9431E6832E8E819F81D9
:100BB000A816B9060CF060C0C501B8010E94622FEA
:100BC00060FF12C0F7012385222371F06F5F7F4F12
:100BD000609F9001619F300D709F300D1124215056
:100BE0003109281B390B01C09501C501B8010E94CC
:100BF000622FD7015896ED91FC91599760E070E013
:100C000040E050E0A191B1916A0F7B1F86179707D2
:100C10002CF04F5F5F4F45305105A1F7F301E40F12
:100C2000F51F8081B901660F771F813321F4F70129
:100C30008685898206C0823331F4D7011E968C9155
:100C400019829A8206C0833331F4F70186851982AE
:100C50001A828B8303C059829A821B82620F731F90
:100C60006C0D7D1DCE0101960E94F122FFEFAF1A9F
:100C7000BF0A9CCF80E001C081E02D960FB6F894AA
:100C8000DEBF0FBECDBFDF91CF911F910F91FF90BF
:100C9000EF90DF90CF90BF90AF909F908F907F901C
:100CA0006F905F904F9008952F923F924F925F9276
:100CB0006F927F928F929F92AF92BF92CF92DF926C
:100CC000EF92FF920F931F93CF93DF93CDB7DEB7D1
:100CD0002D970FB6F894DEBF0FBECDBF7C016B0120
:100CE0000C831D832E833F83488759872C803D804A
:100CF000088519850E9459254B015C01F7018489FB
:100D00009589A689B789A5019401281B390B4A0B3F
:100D10005B0BCA01B9010E943E2E2B013C0120E071
:100D200030E048EC52E4F701668177818085918557
:100D30000E94A52D20E030E040E85FE30E943D2DB9
:100D40006A877B878C879D87F701628173818481A5
:100D500095810E943E2E9B01AC016A857B858C8526
:100D60009D850E94F02E9B01AC01C301B2010E943F
:100D7000A12D87FD9EC0F701848A958AA68AB78A2D
:100D8000808D918D892B81F4C80163E070E00E9411
:100D9000622F758F648F718F608F660F771FC80108
:100DA000861B970B938F828FF701648475848089EB
:100DB00091892CE0289F4001299F900C11240196D5
:100DC000918B808B228933898217930714F0118AC3
:100DD000108A510155245A9461E6462E8E819F81D6
:100DE000A816B9060CF067C0C501B8010E94622FB1
:100DF00060FF12C0F7012385222371F06F5F7F4FE0
:100E0000609F9001619F300D709F300D1124215023
:100E10003109281B390B01C09501C501B8010E9499
:100E2000622FF701608D718D428D538D460F571FD4
:100E3000841795074CF451E040E0861797070CF4AF
:100E400050E0E52FF42F02C0E2E0F0E0C501821986
:100E50009309B8010E94622FCB01880F991F680F78
:100E6000791F660D771DE60FF71FE80DF91D8081CC
:100E7000B901660F771F813321F4F7018685498216
:100E800005C0823331F4F701868519825A828B833B
:100E900004C0F0EAF9835A821B82620F731F6C0D43
:100EA0007D1DCE0101960E94F1222FEFA21AB20AF7
:100EB00095CF80E001C081E02D960FB6F894DEBF9B
:100EC0000FBECDBFDF91CF911F910F91FF90EF909B
:100ED000DF90CF90BF90AF909F908F907F906F905A
:100EE0005F904F903F902F9008952F923F924F9296
:100EF0005F926F927F928F929F92AF92BF92CF92AA
:100F0000DF92EF92FF920F931F93CF93DF93CDB7B2
:100F1000DEB760970FB6F894DEBF0FBECDBF1C01E1
:100F2000788B6F870F83188729873A870F811885F9
:100F300029853A853E872D870E9459256B017C01C2
:100F4000F10185859685A785B089A7019601281BA3
:100F5000390B4A0B5B0BCA01B9010E943E2E4B01B3
:100F60005C0120E030E048EC52E4F10166817781D9
:100F7000808591850E94A52D20E030E040E85FE368
:100F80000E943D2D2B013C01F1016281738184811E
:100F900095810E943E2E9B01AC01C301B2010E94CB
:100FA000F02E9B01AC01C501B4010E94A12D87FD6B
:100FB0006FC0F101C586D686E786F08A80EA8C8309
:100FC0008FEF8D838E8323853485C90162E070E0C5
:100FD0000E94622F6801CC0CDD1CC00ED11E01974F
:100FE000E1F4E12CF12C2D853E85021713070CF05E
:100FF00040C019821A821B82B7016C0D7D1D4F857E
:101000005889640F751FCE0101960E94F1220F5F6F
:101010001F4F53E0E50EF11CE6CF2C3031058CF468
:10102000EF85F889EC0DFD1D8FEF2D853E850217AC
:101030001307FCF41082818312820F5F1F4F3396D7
:10104000F4CFE12CF12C4D855E85041715078CF447
:10105000B7016C0D7D1D8F859889680F791FCE01B2
:1010600004960E94F1220F5F1F4F93E0E90EF11CDE
:10107000EACFF101838594850196883191051CF4AE
:101080009487838703C0F1011486138681E001C031
:1010900080E060960FB6F894DEBF0FBECDBFDF9143
:1010A000CF911F910F91FF90EF90DF90CF90BF9065
:1010B000AF909F908F907F906F905F904F903F90F8
:1010C0002F9008952F923F924F925F926F927F924E
:1010D0008F929F92AF92BF92CF92DF92EF92FF9248
:1010E0000F931F93CF93DF93CDB7DEB72B970FB638
:1010F000F894DEBF0FBECDBF7C015B010C831D8366
:101100002E833F830C811D818E809F800E945925F4
:101110002B013C01F701378883899489A589B68919
:10112000B301A201481B590B6A0B7B0B3320A1F1C1
:1011300087859089A189B28984179507A607B70783
:1011400008F05BC0178AC801880F991F9C01200F07
:10115000311F3B872A87C12CD12C22242A940815C1
:101160001905A4F431E639832A822B826A857B85AE
:101170006C0D7D1D6A0D7B1DCE0101960E94F12232
:101180000F5F1F4F83E0C80ED11CE9CFF701438AE0
:10119000548A658A768A32C0F70183859485A5854D
:1011A000B68584179507A607B70740F581E0878BBA
:1011B0001801220C331C200E311EC12CD12C081515
:1011C00019059CF41982FFEFFA831B82B601620DA8
:1011D000731D6A0D7B1DCE0101960E94F1220F5FE7
:1011E0001F4F23E0C20ED11CEACFF701438A548A75
:1011F000658A768A3324339401C0312C832D2B9653
:101200000FB6F894DEBF0FBECDBFDF91CF911F9117
:101210000F91FF90EF90DF90CF90BF90AF909F9095
:101220008F907F906F905F904F903F902F90089598
:101230008F929F92AF92BF92CF92DF92EF92FF92E6
:101240000F931F93CF93DF93CDB7DEB729970FB6D8
:10125000F894DEBF0FBECDBF5B010C831D832E83D0
:101260003F830C811D816801CC0CDD1CC00ED11E9A
:10127000E12CF12C91E6892E99249A948E819F81FC
:101280000817190794F489829A821B82B7016C0DA2
:101290007D1D6A0D7B1DCE0101960E94F1220F5F1C
:1012A0001F4F83E0E80EF11CE9CF81E029960FB6CD
:1012B000F894DEBF0FBECDBFDF91CF911F910F918C
:1012C000FF90EF90DF90CF90BF90AF909F908F9066
:1012D00008952F923F924F925F926F927F928F92DA
:1012E0009F92AF92BF92CF92DF92EF92FF920F93B5
:1012F0001F93CF93DF93CDB7DEB76B970FB6F894FC
:10130000DEBF0FBECDBF6C017B8F6A8F0A871B8744
:101310002C873D874E875F878A849B84AE84BF84F9
:101320000E945925D60151960D911D912D913C9108
:1013300054972B013C01401A510A620A730A930127
:1013400082011F964D915C9150972A01550F6608B6
:101350007708041515052605370508F4A3C051962E
:101360006D937D938D939C9354971B96ED91FC9177
:101370001C974081950122503109429FC001439F33
:10138000900D112464E670E00E94622FFB013296FA
:10139000FD8BEC8B2501440C551C5F8A4E8AC401E1
:1013A000880F991F3C01680C791C798E688E612C1E
:1013B000712C00E010E03AE5432E55245A9448E29F
:1013C000242E9E012C5F3F4F398B288BCE01019636
:1013D0009B8B8A8B54E6352E2C853D85C801880D64
:1013E000991D821793070CF05FC00E94D12CD60183
:1013F0001D962D913C911E972115310521F44C82AB
:101400005D821E8217C06BE970E00E94622F8C59CA
:101410002130310519F4B0EABC830AC0223031050D
:1014200031F02330310519F4EDE2EC8301C04C8238
:101430005D828E8329825A821B82C801B5010E9477
:10144000622F2C893D89261737071CF48A899B89CE
:1014500002C088899989E88CF98CE60CF71CAA8D62
:10146000BB8DEA0EFB1EB7010E94F122C801B50137
:101470000E94622F823091053CF00E972CF4EE8989
:10148000FF890E171F0744F43F8258865986B7011B
:10149000CE0107960E94F1220F5F1F4FF3E06F0EFF
:1014A000711C9ACF80E001C081E06B960FB6F89472
:1014B000DEBF0FBECDBFDF91CF911F910F91FF9087
:1014C000EF90DF90CF90BF90AF909F908F907F90E4
:1014D0006F905F904F903F902F9008952F923F9282
:1014E0004F925F926F927F928F929F92AF92BF9234
:1014F000CF92DF92EF92FF920F931F93CF93DF93E0
:10150000CDB7DEB729970FB6F894DEBF0FBECDBFBB
:101510007C014B010C831D832E833F8348875987B1
:101520000E945925D70153960D911D912D913C9103
:1015300056972B013C01401A510A620A730A1F9602
:101540000D911D912D913C9152970415150526057D
:10155000370508F0BDC0F701638B748B858B968BC4
:101560000384F485E02D608170E080E090E00E94CB
:10157000402E20E030E048EC52E40E94A52D2B01E3
:101580003C01D7011D966D917C911E97072E000C92
:10159000880B990B0E94402E9B01AC01C301B20144
:1015A0000E94F02E0E940D2E5B01CC80DD80860112
:1015B000000F111F0C0D1D1D080D191D96E9292E78
:1015C00033243A9424EF422E5524539438E2632E68
:1015D000712C8E819F81F701C816D9060CF04FC07F
:1015E000878925853685882359F0C601B9010E946F
:1015F000622F61707727F1E06F27462F417001C09D
:1016000041E0C601B9010E94622F8A159B05E4F4EE
:101610004423D1F00E94D12C4C010E94D12CB20164
:101620000E94622F382F292FC401B3010E94622F1C
:1016300085518983832F922F8C39910514F08BE982
:1016400090E08C598A830AC0B9016A197B09861710
:10165000970734F0411104C019823A823B8204C0DA
:1016600084E689831A822B82B801CE0101960E94FA
:10167000F122AFEFCA1ADA0A0D5F1F4FAACF208DF1
:1016800087859089A189B289222321F00A96A11D1C
:10169000B11D04C00A97A109B109F7018787908B92
:1016A000A18BB28BD7011F964D915D916D917C916D
:1016B0005297485251096109710981E0453151053C
:1016C0006105710530F0822758968C9381E001C046
:1016D00080E029960FB6F894DEBF0FBECDBFDF9134
:1016E000CF911F910F91FF90EF90DF90CF90BF901F
:1016F000AF909F908F907F906F905F904F903F90B2
:101700002F9008950F931F93CF93DF9300D000D0B5
:10171000CDB7DEB784E595E00E943C2487E895E0EC
:101720000E943C2480E026960FB6F894DEBF0FBEE0
:10173000CDBFDF91CF911F910F910895FC0188E4F7
:1017400094E091838083138212828FEF8683878354
:10175000808781878287838781E0848716861586C4
:10176000158214828091270790912807892B21F4F4
:10177000F0932807E0932707A091A005B091A10559
:10178000109721F01596FC93EE931497F093A10512
:10179000E093A00588E594E0918380830895FC019F
:1017A00086E192E09183808388EC90E0A0E0B0E055
:1017B00082839383A483B58380E090E0A8ECB2E4B5
:1017C00086839783A087B18712860895CF93DF938E
:1017D00080912D078823B9F08130A9F481E190E050
:1017E0000E94972FEC01DBDF82E494E099838883E9
:1017F00082E390E0A0E0B0E08A839B83AC83BD836A
:101800001C861B860AC08BE090E00E94972FEC019B
:10181000C6DF8CE095E099838883CE01DF91CF917C
:1018200008951F93CF93DF9310912B07123011F17E
:10183000133009F446C0113009F070C08AE190E01D
:101840000E94972FEC01ABDF84EA92E099838883B2
:1018500086E992E0998F888F82E390E0A0E0B0E083
:101860008A839B83AC83BD8388E192E09D878C87CC
:101870001B8743C08EE190E00E94972FEC018FDF21
:1018800084E992E09983888382E390E0A0E0B0E06D
:101890008A839B83AC83BD838EE193E09D878C8795
:1018A00081E08B870E9459256C8B7D8B8E8B9F8B63
:1018B000198A188A198E188E1B8E1A8E1D8E1C8EF0
:1018C00024C08AE190E00E94972FEC0168DF84EA4F
:1018D00092E09983888386E992E0998F888F82E3EA
:1018E00090E0A0E0B0E08A839B83AC83BD8386EA6E
:1018F00092E09D878C8781E08B870E9459256C8BB5
:101900007D8B8E8B9F8B198A188A8FEF90E09F8733
:101910008E8788E190E09B8B8A8B0AC08BE090E0F9
:101920000E94972FEC013BDF8CE095E09983888340
:10193000CE01DF91CF911F910895269A0895249AA0
:1019400008954F925F926F927F928F929F92AF9283
:10195000CF92DF92EF92FF920F931F93CF93DF937B
:10196000EB010F962C010E94EB23F894E881F9819A
:1019700005B1006415B11F7B15B9C9848E814C2D4A
:10198000481B842F4E839F846A807B80FC84ED8477
:10199000DE84F394E394D3949F8138858A84AB8466
:1019A0004081D30120E0622F722F708144278894F8
:1019B0007111780F08F47FEF81958894F0FC470F40
:1019C00047958894F1FC470F47958894F2FC470FA0
:1019D00047958894F3FC470F47958894F4FC470F8C
:1019E00047958894F5FC470F47958894F6FC470F78
:1019F00047958894F7FC470F47958894272FF11057
:101A0000242F8C0D422F002C05B900C047FF15B9BB
:101A100071812227889400C000C0002C15B9711173
:101A2000790F00C0002C05B900C046FF15B908F4B5
:101A30007FEF9195889400C000C0002C15B9E0FCA0
:101A4000270F00C0002C05B900C045FF15B9279528
:101A50008894E1FC270F00C000C0002C15B9279521
:101A6000889400C0002C05B900C044FF15B9E2FC01
:101A7000270F2795889400C000C0002C15B9E3FCFF
:101A8000270F00C0002C05B900C043FF15B92795EA
:101A90008894E4FC270F00C000C0002C15B92795DE
:101AA000889400C0002C05B900C042FF15B9E5FCC0
:101AB000270F2795889400C000C0002C15B9E6FCBC
:101AC000270F00C0002C05B900C041FF15B92795AC
:101AD0008894E7FC270F00C000C0002C15B927959B
:101AE000889400C0002C05B900C040FF15B9472FED
:101AF000E110422F980D00C000C0002C15B900C0A5
:101B000000C0002C05B900C047FF15B9728122271B
:101B1000889400C000C0002C15B97111730F00C06B
:101B2000002C05B900C046FF15B908F47FEFE90D98
:101B3000F11D00C000C0002C15B9D0FC270F00C05B
:101B4000002C05B900C045FF15B927958894D1FC34
:101B5000270F00C000C0002C15B92795889400C03D
:101B6000002C05B900C044FF15B9D2FC270F2795FA
:101B7000889400C000C0002C15B9D3FC270F00C00A
:101B8000002C05B900C043FF15B927958894D4FCF3
:101B9000270F00C000C0002C15B92795889400C0FD
:101BA000002C05B900C042FF15B9D5FC270F2795B9
:101BB000889400C000C0002C15B9D6FC270F00C0C7
:101BC000002C05B900C041FF15B927958894D7FCB2
:101BD000270F00C000C0002C15B92795889400C0BD
:101BE000002C05B900C040FF15B9472FD110422F76
:101BF000319500C000C0002C15B93A0D00C000C0DE
:101C000005B900C047FF15B970812227889400C02C
:101C100000C0002C15B97111780F00C0002C05B957
:101C200000C046FF15B908F47FEF8195889400C085
:101C300000C0002C15B9F0FC270F00C0002C05B91E
:101C400000C045FF15B927958894F1FC270F00C007
:101C500000C0002C15B92795889400C0002C05B948
:101C600000C044FF15B9F2FC270F2795889400C0E7
:101C700000C0002C15B9F3FC270F00C0002C05B9DB
:101C800000C043FF15B927958894F4FC270F00C0C6
:101C900000C0002C15B92795889400C0002C05B908
:101CA00000C042FF15B9F5FC270F2795889400C0A6
:101CB00000C0002C15B9F6FC270F00C0002C05B998
:101CC00000C041FF15B927958894F7FC270F00C085
:101CD00000C0002C15B92795889400C0002C05B9C8
:101CE00000C040FF15B9472FF110422F8C0D00C0E6
:101CF00000C0002C15B9119709F086CE20EE31E016
:101D0000D3010E947D2FDC01CB01F4E0B695A795AD
:101D100097958795FA95D1F720E030E0B901EAE987
:101D20006E9E060C611D7E9E600D711D1124670D57
:101D3000711D860F971FA11DB11D893E43E09407B9
:101D4000A105B10508F434C0885E9340A109B1092A
:101D500042E0B695A795979587954A95D1F747E0C4
:101D6000849F080E211D949F200D311D1124290FE1
:101D7000311D60919A0670E0860F971F820F931FA6
:101D80004091230750912407609125077091260701
:101D9000292F3327420F531F611D711D40932307C5
:101DA00050932407609325077093260780939A0623
:101DB0007894C201DF91CF911F910F91FF90EF9026
:101DC000DF90CF90AF909F908F907F906F905F90BB
:101DD0004F900C94E2234F925F926F927F928F927A
:101DE0009F92AF92CF92DF92EF92FF920F931F9349
:101DF000CF93DF93EB010F962C010E94EB23F89415
:101E0000E881F98105B1006115B11F7E15B9C9845A
:101E10008E814C2D481B842F4E839F846A807B804B
:101E2000FC84ED84DE84F394E394D3949F8138851D
:101E30008A84AB844081D30120E0622F722F7081AD
:101E4000442788947111780F08F47FEF8195889466
:101E5000F0FC470F47958894F1FC470F479588940D
:101E6000F2FC470F47958894F3FC470F47958894F9
:101E7000F4FC470F47958894F5FC470F47958894E5
:101E8000F6FC470F47958894F7FC470F47958894D1
:101E9000272FF110242F8C0D422F002C05B900C0E4
:101EA00047FF15B971812227889400C000C0002C1B
:101EB00015B97111790F00C0002C05B900C046FF9B
:101EC00015B908F47FEF9195889400C000C0002CEC
:101ED00015B9E0FC270F00C0002C05B900C045FF74
:101EE00015B927958894E1FC270F00C000C0002C8D
:101EF00015B92795889400C0002C05B900C044FF8F
:101F000015B9E2FC270F2795889400C000C0002C6B
:101F100015B9E3FC270F00C0002C05B900C043FF32
:101F200015B927958894E4FC270F00C000C0002C49
:101F300015B92795889400C0002C05B900C042FF50
:101F400015B9E5FC270F2795889400C000C0002C28
:101F500015B9E6FC270F00C0002C05B900C041FFF1
:101F600015B927958894E7FC270F00C000C0002C06
:101F700015B92795889400C0002C05B900C040FF12
:101F800015B9472FE110422F980D00C000C0002C5A
:101F900015B900C000C0002C05B900C047FF15B935
:101FA00072812227889400C000C0002C15B97111DD
:101FB000730F00C0002C05B900C046FF15B908F426
:101FC0007FEFE90DF11D00C000C0002C15B9D0FC59
:101FD000270F00C0002C05B900C045FF15B9279593
:101FE0008894D1FC270F00C000C0002C15B927959C
:101FF000889400C0002C05B900C044FF15B9D2FC7C
:10200000270F2795889400C000C0002C15B9D3FC79
:10201000270F00C0002C05B900C043FF15B9279554
:102020008894D4FC270F00C000C0002C15B9279558
:10203000889400C0002C05B900C042FF15B9D5FC3A
:10204000270F2795889400C000C0002C15B9D6FC36
:10205000270F00C0002C05B900C041FF15B9279516
:102060008894D7FC270F00C000C0002C15B9279515
:10207000889400C0002C05B900C040FF15B9472F57
:10208000D110422F319500C000C0002C15B93A0D77
:1020900000C000C005B900C047FF15B970812227F4
:1020A000889400C000C0002C15B97111780F00C0D1
:1020B000002C05B900C046FF15B908F47FEF8195E3
:1020C000889400C000C0002C15B9F0FC270F00C098
:1020D000002C05B900C045FF15B927958894F1FC7F
:1020E000270F00C000C0002C15B92795889400C0A8
:1020F000002C05B900C044FF15B9F2FC270F279545
:10210000889400C000C0002C15B9F3FC270F00C054
:10211000002C05B900C043FF15B927958894F4FC3D
:10212000270F00C000C0002C15B92795889400C067
:10213000002C05B900C042FF15B9F5FC270F279503
:10214000889400C000C0002C15B9F6FC270F00C011
:10215000002C05B900C041FF15B927958894F7FCFC
:10216000270F00C000C0002C15B92795889400C027
:10217000002C05B900C040FF15B9472FF110422FC0
:102180008C0D00C000C0002C15B9119709F086CE47
:1021900020EE31E0D3010E947D2FDC01CB01F4E081
:1021A000B695A79597958795FA95D1F720E030E0F9
:1021B000B901EAE96E9E060C611D7E9E600D711DDF
:1021C0001124670D711D860F971FA11DB11D893E3A
:1021D00043E09407A105B10508F434C0885E93403C
:1021E000A109B10942E0B695A795979587954A95BB
:1021F000D1F747E0849F080E211D949F200D311DCB
:102200001124290F311D60919A0670E0860F971FE7
:10221000820F931F40912307509124076091250757
:1022200070912607292F3327420F531F611D711DFF
:102230004093230750932407609325077093260744
:1022400080939A067894C201DF91CF911F910F91EC
:10225000FF90EF90DF90CF90AF909F908F907F9006
:102260006F905F904F900C94E2239D9A08956C9A22
:1022700008954F925F926F927F928F929F92AF924A
:10228000CF92DF92EF92FF920F931F93CF93DF9342
:10229000EB010F962C010E94EB23F894E881F98161
:1022A00004B3006214B31F7D14BBC9848E814C2D0E
:1022B000481B842F4E839F846A807B80FC84ED843E
:1022C000DE84F394E394D3949F8138858A84AB842D
:1022D0004081D30120E0622F722F708144278894BF
:1022E0007111780F08F47FEF81958894F0FC470F07
:1022F00047958894F1FC470F47958894F2FC470F67
:1023000047958894F3FC470F47958894F4FC470F52
:1023100047958894F5FC470F47958894F6FC470F3E
:1023200047958894F7FC470F47958894272FF1101D
:10233000242F8C0D422F002C04BB00C047FF14BB80
:1023400071812227889400C000C0002C14BB711139
:10235000790F00C0002C04BB00C046FF14BB08F47A
:102360007FEF9195889400C000C0002C14BBE0FC66
:10237000270F00C0002C04BB00C045FF14BB2795ED
:102380008894E1FC270F00C000C0002C14BB2795E7
:10239000889400C0002C04BB00C044FF14BBE2FCC6
:1023A000270F2795889400C000C0002C14BBE3FCC5
:1023B000270F00C0002C04BB00C043FF14BB2795AF
:1023C0008894E4FC270F00C000C0002C14BB2795A4
:1023D000889400C0002C04BB00C042FF14BBE5FC85
:1023E000270F2795889400C000C0002C14BBE6FC82
:1023F000270F00C0002C04BB00C041FF14BB279571
:102400008894E7FC270F00C000C0002C14BB279560
:10241000889400C0002C04BB00C040FF14BB472FB1
:10242000E110422F980D00C000C0002C14BB00C06A
:1024300000C0002C04BB00C047FF14BB72812227E0
:10244000889400C000C0002C14BB7111730F00C031
:10245000002C04BB00C046FF14BB08F47FEFE90D5D
:10246000F11D00C000C0002C14BBD0FC270F00C021
:10247000002C04BB00C045FF14BB27958894D1FCF9
:10248000270F00C000C0002C14BB2795889400C003
:10249000002C04BB00C044FF14BBD2FC270F2795BF
:1024A000889400C000C0002C14BBD3FC270F00C0D0
:1024B000002C04BB00C043FF14BB27958894D4FCB8
:1024C000270F00C000C0002C14BB2795889400C0C3
:1024D000002C04BB00C042FF14BBD5FC270F27957E
:1024E000889400C000C0002C14BBD6FC270F00C08D
:1024F000002C04BB00C041FF14BB27958894D7FC77
:10250000270F00C000C0002C14BB2795889400C082
:10251000002C04BB00C040FF14BB472FD110422F3A
:10252000319500C000C0002C14BB3A0D00C000C0A3
:1025300004BB00C047FF14BB70812227889400C0F1
:1025400000C0002C14BB7111780F00C0002C04BB1C
:1025500000C046FF14BB08F47FEF8195889400C04B
:1025600000C0002C14BBF0FC270F00C0002C04BBE3
:1025700000C045FF14BB27958894F1FC270F00C0CD
:1025800000C0002C14BB2795889400C0002C04BB0D
:1025900000C044FF14BBF2FC270F2795889400C0AD
:1025A00000C0002C14BBF3FC270F00C0002C04BBA0
:1025B00000C043FF14BB27958894F4FC270F00C08C
:1025C00000C0002C14BB2795889400C0002C04BBCD
:1025D00000C042FF14BBF5FC270F2795889400C06C
:1025E00000C0002C14BBF6FC270F00C0002C04BB5D
:1025F00000C041FF14BB27958894F7FC270F00C04B
:1026000000C0002C14BB2795889400C0002C04BB8C
:1026100000C040FF14BB472FF110422F8C0D00C0AB
:1026200000C0002C14BB119709F086CE20EE31E0DB
:10263000D3010E947D2FDC01CB01F4E0B695A79574
:1026400097958795FA95D1F720E030E0B901EAE94E
:102650006E9E060C611D7E9E600D711D1124670D1E
:10266000711D860F971FA11DB11D893E43E0940780
:10267000A105B10508F434C0885E9340A109B109F1
:1026800042E0B695A795979587954A95D1F747E08B
:10269000849F080E211D949F200D311D1124290FA8
:1026A000311D60919A0670E0860F971F820F931F6D
:1026B00040912307509124076091250770912607C8
:1026C000292F3327420F531F611D711D409323078C
:1026D00050932407609325077093260780939A06EA
:1026E0007894C201DF91CF911F910F91FF90EF90ED
:1026F000DF90CF90AF909F908F907F906F905F9082
:102700004F900C94E2234F925F926F927F928F9240
:102710009F92AF92CF92DF92EF92FF920F931F930F
:10272000CF93DF93EB010F962C010E94EB23F894DB
:10273000E881F9810EB100611EB11F7E1EB9C98406
:102740008E814C2D481B842F4E839F846A807B8012
:10275000FC84ED84DE84F394E394D3949F813885E4
:102760008A84AB844081D30120E0622F722F708174
:10277000442788947111780F08F47FEF819588942D
:10278000F0FC470F47958894F1FC470F47958894D4
:10279000F2FC470F47958894F3FC470F47958894C0
:1027A000F4FC470F47958894F5FC470F47958894AC
:1027B000F6FC470F47958894F7FC470F4795889498
:1027C000272FF110242F8C0D422F002C0EB900C0A2
:1027D00047FF1EB971812227889400C000C0002CD9
:1027E0001EB97111790F00C0002C0EB900C046FF50
:1027F0001EB908F47FEF9195889400C000C0002CAA
:102800001EB9E0FC270F00C0002C0EB900C045FF28
:102810001EB927958894E1FC270F00C000C0002C4A
:102820001EB92795889400C0002C0EB900C044FF43
:102830001EB9E2FC270F2795889400C000C0002C29
:102840001EB9E3FC270F00C0002C0EB900C043FFE7
:102850001EB927958894E4FC270F00C000C0002C07
:102860001EB92795889400C0002C0EB900C042FF05
:102870001EB9E5FC270F2795889400C000C0002CE6
:102880001EB9E6FC270F00C0002C0EB900C041FFA6
:102890001EB927958894E7FC270F00C000C0002CC4
:1028A0001EB92795889400C0002C0EB900C040FFC7
:1028B0001EB9472FE110422F980D00C000C0002C18
:1028C0001EB900C000C0002C0EB900C047FF1EB9E1
:1028D00072812227889400C000C0002C1EB971119B
:1028E000730F00C0002C0EB900C046FF1EB908F4DB
:1028F0007FEFE90DF11D00C000C0002C1EB9D0FC17
:10290000270F00C0002C0EB900C045FF1EB9279547
:102910008894D1FC270F00C000C0002C1EB9279559
:10292000889400C0002C0EB900C044FF1EB9D2FC30
:10293000270F2795889400C000C0002C1EB9D3FC37
:10294000270F00C0002C0EB900C043FF1EB9279509
:102950008894D4FC270F00C000C0002C1EB9279516
:10296000889400C0002C0EB900C042FF1EB9D5FCEF
:10297000270F2795889400C000C0002C1EB9D6FCF4
:10298000270F00C0002C0EB900C041FF1EB92795CB
:102990008894D7FC270F00C000C0002C1EB92795D3
:1029A000889400C0002C0EB900C040FF1EB9472F0C
:1029B000D110422F319500C000C0002C1EB93A0D35
:1029C00000C000C00EB900C047FF1EB970812227A9
:1029D000889400C000C0002C1EB97111780F00C08F
:1029E000002C0EB900C046FF1EB908F47FEF819598
:1029F000889400C000C0002C1EB9F0FC270F00C056
:102A0000002C0EB900C045FF1EB927958894F1FC33
:102A1000270F00C000C0002C1EB92795889400C065
:102A2000002C0EB900C044FF1EB9F2FC270F2795F9
:102A3000889400C000C0002C1EB9F3FC270F00C012
:102A4000002C0EB900C043FF1EB927958894F4FCF2
:102A5000270F00C000C0002C1EB92795889400C025
:102A6000002C0EB900C042FF1EB9F5FC270F2795B8
:102A7000889400C000C0002C1EB9F6FC270F00C0CF
:102A8000002C0EB900C041FF1EB927958894F7FCB1
:102A9000270F00C000C0002C1EB92795889400C0E5
:102AA000002C0EB900C040FF1EB9472FF110422F75
:102AB0008C0D00C000C0002C1EB9119709F086CE05
:102AC00020EE31E0D3010E947D2FDC01CB01F4E048
:102AD000B695A79597958795FA95D1F720E030E0C0
:102AE000B901EAE96E9E060C611D7E9E600D711DA6
:102AF0001124670D711D860F971FA11DB11D893E01
:102B000043E09407A105B10508F434C0885E934002
:102B1000A109B10942E0B695A795979587954A9581
:102B2000D1F747E0849F080E211D949F200D311D91
:102B30001124290F311D60919A0670E0860F971FAE
:102B4000820F931F4091230750912407609125071E
:102B500070912607292F3327420F531F611D711DC6
:102B6000409323075093240760932507709326070B
:102B700080939A067894C201DF91CF911F910F91B3
:102B8000FF90EF90DF90CF90AF909F908F907F90CD
:102B90006F905F904F900C94E22380E991E008954C
:102BA000E1E0F1E08081826080830895E4E0F1E07B
:102BB00080818260808308956F927F928F929F922E
:102BC000AF92BF92CF92DF92EF92FF920F931F933B
:102BD000CF93DF93EB010F963C010E94EB23F89417
:102BE000E881F981509102015260409102014D7FCC
:102BF00040930201E9848E812E2D281B822F2E8383
:102C0000DF84AA81BB816C857D85FE846F5F7F5FD9
:102C1000F3949F813885BA84AB84108120E0C32E61
:102C2000022F322F3081112788943111380F08F488
:102C30003FEF8195889460FD130F1795889461FD8F
:102C4000130F1795889462FD130F1795889463FDF1
:102C5000130F1795889464FD130F1795889465FDDD
:102C6000130F1795889466FD130F1795889467FDC9
:102C7000130F17958894232F6111212F8E0D122F7A
:102C8000002C50930201002C17FF40930201318168
:102C90002227889400C000C0409302013111390FEF
:102CA00000C050930201002C16FF4093020108F46B
:102CB0003FEF9195889400C000C04093020170FDE1
:102CC000230F00C050930201002C15FF4093020116
:102CD0002795889471FD230F00C000C04093020126
:102CE0002795889400C050930201002C14FF409354
:102CF000020172FD230F2795889400C000C0409305
:102D0000020173FD230F00C050930201002C13FF3A
:102D1000409302012795889474FD230F00C000C0E2
:102D2000409302012795889400C050930201002C23
:102D300012FF4093020175FD230F2795889400C070
:102D400000C04093020176FD230F00C050930201A2
:102D5000002C11FF409302012795889477FD230FE3
:102D600000C000C0409302012795889400C0509392
:102D70000201002C10FF40930201132F7111122F3A
:102D80009B0D00C000C04093020100C000C05093E2
:102D90000201002C17FF4093020132812227889400
:102DA00000C000C04093020131113C0D00C050939F
:102DB0000201002C16FF4093020108F43FEFED0DD5
:102DC000F11D00C000C040930201F0FC230F00C0C1
:102DD00050930201002C15FF40930201279588941F
:102DE000F1FC230F00C000C0409302012795889496
:102DF00000C050930201002C14FF40930201F2FC2A
:102E0000230F2795889400C000C040930201F3FC73
:102E1000230F00C050930201002C13FF40930201C6
:102E200027958894F4FC230F00C000C04093020152
:102E30002795889400C050930201002C12FF409304
:102E40000201F5FC230F2795889400C000C0409331
:102E50000201F6FC230F00C050930201002C11FF69
:102E60004093020127958894F7FC230F00C000C00F
:102E7000409302012795889400C050930201002CD2
:102E800010FF40930201132FF110122FC19400C0C4
:102E900000C040930201CA0C00C0002C50930201F4
:102EA000002C17FF4093020130812227889400C034
:102EB00000C0409302013111380F00C0509302014D
:102EC000002C16FF4093020108F43FEF819588948F
:102ED00000C000C04093020160FD230F00C050936A
:102EE0000201002C15FF409302012795889461FD93
:102EF000230F00C000C0409302012795889400C0B2
:102F000050930201002C14FF4093020162FD230F35
:102F10002795889400C000C04093020163FD230FF1
:102F200000C050930201002C13FF4093020127952B
:102F3000889464FD230F00C000C0409302012795D0
:102F4000889400C050930201002C12FF40930201AC
:102F500065FD230F2795889400C000C040930201AF
:102F600066FD230F00C050930201002C11FF409317
:102F700002012795889467FD230F00C000C040938D
:102F800002012795889400C050930201002C10FF85
:102F900040930201132F6111122F8E0D00C000C04B
:102FA00040930201119709F06CCE4A815B8120EEBB
:102FB00031E0DA010E947D2FDC01CB0164E0B6959F
:102FC000A795979587956A95D1F760E070E09B018A
:102FD000EAE94E9F040E211D5E9F200D311D112434
:102FE000250F311D820F931FA11DB11D893E23E0C6
:102FF0009207A105B10508F434C0885E9340A10989
:10300000B10922E0B695A795979587952A95D1F7AE
:1030100027E0829F080E611D929F600D711D112493
:10302000690F711D20919A0630E0820F931F860F61
:10303000971F4091230750912407609125077091B5
:103040002607292F3327420F531F611D711D4093FF
:1030500023075093240760932507709326078093D6
:103060009A067894C301DF91CF911F910F91FF9041
:10307000EF90DF90CF90BF90AF909F908F907F9018
:103080006F900C94E2236F927F928F929F92AF92F7
:10309000BF92CF92DF92EF92FF920F931F93CF9345
:1030A000DF93EB010F963C010E94EB23F894E8813B
:1030B000F981509105015260409105014D7F409387
:1030C0000501E9848E812E2D281B822F2E83DF841B
:1030D000AA81BB816C857D85FE846F5F7F5FF394E1
:1030E0009F813885BA84AB84108120E0C32E022FE3
:1030F000322F3081112788943111380F08F43FEFB7
:103100008195889460FD130F1795889461FD130FC6
:103110001795889462FD130F1795889463FD130F1C
:103120001795889464FD130F1795889465FD130F08
:103130001795889466FD130F1795889467FD130FF4
:1031400017958894232F6111212F8E0D122F002C9B
:1031500050930501002C17FF409305013181222770
:10316000889400C000C0409305013111390F00C0A0
:1031700050930501002C16FF4093050108F43FEF22
:103180009195889400C000C04093050170FD230F05
:1031900000C050930501002C15FF409305012795B1
:1031A000889471FD230F00C000C04093050127954E
:1031B000889400C050930501002C14FF4093050132
:1031C00072FD230F2795889400C000C0409305012D
:1031D00073FD230F00C050930501002C13FF409393
:1031E00005012795889474FD230F00C000C040930B
:1031F00005012795889400C050930501002C12FF0B
:103200004093050175FD230F2795889400C000C0E9
:103210004093050176FD230F00C050930501002C5B
:1032200011FF409305012795889477FD230F00C077
:1032300000C0409305012795889400C05093050174
:10324000002C10FF40930501132F7111122F9B0DBD
:1032500000C000C04093050100C000C050930501AC
:10326000002C17FF4093050132812227889400C06B
:1032700000C04093050131113C0D00C05093050181
:10328000002C16FF4093050108F43FEFED0DF11DF2
:1032900000C000C040930501F0FC230F00C0509314
:1032A0000501002C15FF4093050127958894F1FC3A
:1032B000230F00C000C0409305012795889400C0EB
:1032C00050930501002C14FF40930501F2FC230FDD
:1032D0002795889400C000C040930501F3FC230F9C
:1032E00000C050930501002C13FF40930501279562
:1032F0008894F4FC230F00C000C04093050127957B
:10330000889400C050930501002C12FF40930501E2
:10331000F5FC230F2795889400C000C04093050159
:10332000F6FC230F00C050930501002C11FF4093C1
:10333000050127958894F7FC230F00C000C0409337
:1033400005012795889400C050930501002C10FFBB
:1033500040930501132FF110122FC19400C000C03B
:1033600040930501CA0C00C0002C50930501002CAD
:1033700017FF4093050130812227889400C000C0C8
:10338000409305013111380F00C050930501002C06
:1033900016FF4093050108F43FEF8195889400C023
:1033A00000C04093050160FD230F00C0509305014C
:1033B000002C15FF409305012795889461FD230F8C
:1033C00000C000C0409305012795889400C0509329
:1033D0000501002C14FF4093050162FD230F279582
:1033E000889400C000C04093050163FD230F00C016
:1033F00050930501002C13FF4093050127958894F5
:1034000064FD230F00C000C04093050127958894F8
:1034100000C050930501002C12FF4093050165FD8B
:10342000230F2795889400C000C04093050166FDD6
:10343000230F00C050930501002C11FF409305019C
:103440002795889467FD230F00C000C040930501B5
:103450002795889400C050930501002C10FF4093DD
:103460000501132F6111122F8E0D00C000C0409373
:103470000501119709F06CCE4A815B8120EE31E0A5
:10348000DA010E947D2FDC01CB0164E0B695A7959F
:10349000979587956A95D1F760E070E09B01EAE91E
:1034A0004E9F040E211D5E9F200D311D1124250FFE
:1034B000311D820F931FA11DB11D893E23E092078C
:1034C000A105B10508F434C0885E9340A109B10993
:1034D00022E0B695A795979587952A95D1F727E08D
:1034E000829F080E611D929F600D711D1124690F4E
:1034F000711D20919A0630E0820F931F860F971F4F
:103500004091230750912407609125077091260769
:10351000292F3327420F531F611D711D409323072D
:1035200050932407609325077093260780939A068B
:103530007894C301DF91CF911F910F91FF90EF908D
:10354000DF90CF90BF90AF909F908F907F906F90C3
:103550000C94E223E1E0F1E08081806280830895B1
:10356000E1E0F1E080818860808308956F927F922E
:103570008F929F92AF92BF92CF92DF92EF92FF9283
:103580000F931F93CF93DF93EB010F963C010E94A3
:10359000EB23F894E881F981509102015062409147
:1035A00002014F7D40930201E9848E812E2D281B5C
:1035B000822F2E83DF84AA81BB816C857D85FE846A
:1035C0006F5F7F5FF3949F813885BA84AB841081ED
:1035D00020E0C32E022F322F308111278894311121
:1035E000380F08F43FEF8195889460FD130F17950D
:1035F000889461FD130F1795889462FD130F17953A
:10360000889463FD130F1795889464FD130F179525
:10361000889465FD130F1795889466FD130F179511
:10362000889467FD130F17958894232F6111212F1C
:103630008E0D122F002C50930201002C17FF409387
:10364000020131812227889400C000C0409302010A
:103650003111390F00C050930201002C16FF409326
:10366000020108F43FEF9195889400C000C0409398
:10367000020170FD230F00C050930201002C15FFC2
:10368000409302012795889471FD230F00C000C06C
:10369000409302012795889400C050930201002CAA
:1036A00014FF4093020172FD230F2795889400C0F8
:1036B00000C04093020173FD230F00C0509302012C
:1036C000002C13FF409302012795889474FD230F6B
:1036D00000C000C0409302012795889400C0509319
:1036E0000201002C12FF4093020175FD230F279564
:1036F000889400C000C04093020176FD230F00C0F3
:1037000050930201002C11FF4093020127958894E9
:1037100077FD230F00C000C04093020127958894D5
:1037200000C050930201002C10FF40930201132FA0
:103730007111122F9B0D00C000C04093020100C008
:1037400000C050930201002C17FF40930201328108
:103750002227889400C000C04093020131113C0D23
:1037600000C050930201002C16FF4093020108F4A0
:103770003FEFED0DF11D00C000C040930201F0FCD1
:10378000230F00C050930201002C15FF409302014B
:1037900027958894F1FC230F00C000C040930201DC
:1037A0002795889400C050930201002C14FF409389
:1037B0000201F2FC230F2795889400C000C04093BB
:1037C0000201F3FC230F00C050930201002C13FFF1
:1037D0004093020127958894F4FC230F00C000C099
:1037E000409302012795889400C050930201002C59
:1037F00012FF40930201F5FC230F2795889400C027
:1038000000C040930201F6FC230F00C05093020158
:10381000002C11FF4093020127958894F7FC230F99
:1038200000C000C0409302012795889400C05093C7
:103830000201002C10FF40930201132FF110122FF0
:10384000C19400C000C040930201CA0C00C0002C0B
:1038500050930201002C17FF409302013081222770
:10386000889400C000C0409302013111380F00C09D
:1038700050930201002C16FF4093020108F43FEF21
:103880008195889400C000C04093020160FD230F21
:1038900000C050930201002C15FF409302012795B0
:1038A000889461FD230F00C000C04093020127955A
:1038B000889400C050930201002C14FF4093020131
:1038C00062FD230F2795889400C000C04093020139
:1038D00063FD230F00C050930201002C13FF40939F
:1038E00002012795889464FD230F00C000C0409317
:1038F00002012795889400C050930201002C12FF0A
:103900004093020165FD230F2795889400C000C0F5
:103910004093020166FD230F00C050930201002C6A
:1039200011FF409302012795889467FD230F00C083
:1039300000C0409302012795889400C05093020173
:10394000002C10FF40930201132F6111122F8E0DD6
:1039500000C000C040930201119709F06CCE4A816B
:103960005B8120EE31E0DA010E947D2FDC01CB018A
:1039700064E0B695A795979587956A95D1F760E02D
:1039800070E09B01EAE94E9F040E211D5E9F200D11
:10399000311D1124250F311D820F931FA11DB11D53
:1039A000893E23E09207A105B10508F434C0885E82
:1039B0009340A109B10922E0B695A79597958795FF
:1039C0002A95D1F727E0829F080E611D929F600D16
:1039D000711D1124690F711D20919A0630E0820F2C
:1039E000931F860F971F40912307509124076091E2
:1039F000250770912607292F3327420F531F611D7A
:103A0000711D4093230750932407609325077093FB
:103A1000260780939A067894C301DF91CF911F9176
:103A20000F91FF90EF90DF90CF90BF90AF909F905D
:103A30008F907F906F90C6C66F927F928F929F9269
:103A4000AF92BF92CF92DF92EF92FF920F931F93AC
:103A5000CF93DF93EB010F963C01BDD6F894E8813C
:103A6000F98150910201586040910201477F4093D3
:103A70000201E9848E812E2D281B822F2E83DF8464
:103A8000AA81BB816C857D85FE846F5F7F5FF39427
:103A90009F813885BA84AB84108120E0C32E022F29
:103AA000322F3081112788943111380F08F43FEFFD
:103AB0008195889460FD130F1795889461FD130F0D
:103AC0001795889462FD130F1795889463FD130F63
:103AD0001795889464FD130F1795889465FD130F4F
:103AE0001795889466FD130F1795889467FD130F3B
:103AF00017958894232F6111212F8E0D122F002CE2
:103B000050930201002C17FF4093020131812227BC
:103B1000889400C000C0409302013111390F00C0E9
:103B200050930201002C16FF4093020108F43FEF6E
:103B30009195889400C000C04093020170FD230F4E
:103B400000C050930201002C15FF409302012795FD
:103B5000889471FD230F00C000C040930201279597
:103B6000889400C050930201002C14FF409302017E
:103B700072FD230F2795889400C000C04093020176
:103B800073FD230F00C050930201002C13FF4093DC
:103B900002012795889474FD230F00C000C0409354
:103BA00002012795889400C050930201002C12FF57
:103BB0004093020175FD230F2795889400C000C033
:103BC0004093020176FD230F00C050930201002CA8
:103BD00011FF409302012795889477FD230F00C0C1
:103BE00000C0409302012795889400C050930201C1
:103BF000002C10FF40930201132F7111122F9B0D07
:103C000000C000C04093020100C000C050930201F8
:103C1000002C17FF4093020132812227889400C0B4
:103C200000C04093020131113C0D00C050930201CD
:103C3000002C16FF4093020108F43FEFED0DF11D3B
:103C400000C000C040930201F0FC230F00C050935D
:103C50000201002C15FF4093020127958894F1FC86
:103C6000230F00C000C0409302012795889400C034
:103C700050930201002C14FF40930201F2FC230F29
:103C80002795889400C000C040930201F3FC230FE5
:103C900000C050930201002C13FF409302012795AE
:103CA0008894F4FC230F00C000C0409302012795C4
:103CB000889400C050930201002C12FF409302012F
:103CC000F5FC230F2795889400C000C040930201A3
:103CD000F6FC230F00C050930201002C11FF40930B
:103CE000020127958894F7FC230F00C000C0409381
:103CF00002012795889400C050930201002C10FF08
:103D000040930201132FF110122FC19400C000C084
:103D100040930201CA0C00C0002C50930201002CF9
:103D200017FF4093020130812227889400C000C011
:103D3000409302013111380F00C050930201002C52
:103D400016FF4093020108F43FEF8195889400C06C
:103D500000C04093020160FD230F00C05093020198
:103D6000002C15FF409302012795889461FD230FD5
:103D700000C000C0409302012795889400C0509372
:103D80000201002C14FF4093020162FD230F2795CE
:103D9000889400C000C04093020163FD230F00C05F
:103DA00050930201002C13FF409302012795889441
:103DB00064FD230F00C000C0409302012795889442
:103DC00000C050930201002C12FF4093020165FDD8
:103DD000230F2795889400C000C04093020166FD20
:103DE000230F00C050930201002C11FF40930201E9
:103DF0002795889467FD230F00C000C040930201FF
:103E00002795889400C050930201002C10FF409326
:103E10000201132F6111122F8E0D00C000C04093BC
:103E20000201119709F06CCE4A815B8120EE31E0EE
:103E3000DA010E947D2FDC01CB0164E0B695A795E5
:103E4000979587956A95D1F760E070E09B01EAE964
:103E50004E9F040E211D5E9F200D311D1124250F44
:103E6000311D820F931FA11DB11D893E23E09207D2
:103E7000A105B10508F434C0885E9340A109B109D9
:103E800022E0B695A795979587952A95D1F727E0D3
:103E9000829F080E611D929F600D711D1124690F94
:103EA000711D20919A0630E0820F931F860F971F95
:103EB00040912307509124076091250770912607B0
:103EC000292F3327420F531F611D711D4093230774
:103ED00050932407609325077093260780939A06D2
:103EE0007894C301DF91CF911F910F91FF90EF90D4
:103EF000DF90CF90BF90AF909F908F907F906F900A
:103F000061C4CF92DF92EF92FF920F931F93CF93F2
:103F1000DF936C017A018B01C0E0D0E0CE15DF05A4
:103F200081F0D8016D918D01D601ED91FC91019048
:103F3000F081E02DC6011995892B11F02196EECF65
:103F40007E01C701DF91CF911F910F91FF90EF90FC
:103F5000DF90CF900895FC01538D448D252F30E0E4
:103F6000842F90E0821B930B541710F0CF96089586
:103F700001970895FC01918D828D981761F0828DD3
:103F8000DF01A80FB11D5D968C91928D9F5F9F738D
:103F9000928F90E008958FEF9FEF0895FC01918D2F
:103FA000828D981731F0828DE80FF11D858D90E09C
:103FB00008958FEF9FEF0895FC01918D228D892F39
:103FC00090E0805C9F4F821B91098F739927089521
:103FD0008EE297E0F1DF21E0892B09F420E0822FC7
:103FE0000895FC01848DDF01A80FB11DA35ABF4FB6
:103FF0002C91848D90E001968F739927848FA689E8
:10400000B7892C93A089B1898C91837080648C933B
:10401000938D848D981306C00288F389E02D8081EA
:104020008F7D80830895EF92FF920F931F93CF931C
:10403000DF93EC0181E0888F9B8D8C8D981305C0F8
:10404000E889F989808185FD25C0F62E0B8D10E069
:104050000F5F1F4F0F731127E02E8C8DE8120BC0DE
:104060000FB607FCFACFE889F989808185FFF5CF83
:10407000CE01B7DFF2CF8B8DFE01E80FF11DE35AC1
:10408000FF4FF0829FB7F8940B8FEA89FB898081FC
:1040900080620AC09FB7F894EE89FF896083E8893F
:1040A000F98980818370806480839FBF81E090E084
:1040B000DF91CF911F910F91FF90EF900895CF93D3
:1040C000DF93EC01888D8823C1F0EA89FB89808128
:1040D00085FD05C0A889B9898C9186FD0EC00FB6F3
:1040E00007FCF5CF808185FFF2CFA889B9898C9133
:1040F00085FFEDCFCE0175DFE8CFDF91CF91089539
:1041000080E090E0892B19F063DF811125C080E009
:1041100090E0892B41F080E090E0892B21F00E9413
:10412000000081111CC080E090E0892B41F080E00C
:1041300090E0892B21F00E940000811113C080E0E3
:1041400090E0892BA1F080E090E0892B81F00E9423
:10415000000081110AC008950E940000D8CF0E947B
:104160000000E1CF0E940000EACF0C940000089507
:1041700085ED8093BC008091BC0084FDFCCF109243
:10418000A80508954091DC06262F30E0240F311D4C
:1041900021323105DCF42091A8052430C9F4FC015A
:1041A00080E090E0861758F43091DC062191DC0124
:1041B000A454B94FA30FB11D2C930196F3CF809156
:1041C000DC06680F6093DC0680E0089581E00895C6
:1041D00082E008950895CF93DF93AC01E091AD059F
:1041E000F091AE053097F1F09091AC058091AB0560
:1041F0009817C0F090E0292F30E02617370754F4C5
:10420000D901A456B94FEA01C20FD31F28812C93BC
:104210009F5FF1CF1092AC056093AB05CB01DF91AE
:10422000CF911994DF91CF9108950895E091AC0555
:104230008091AB05E81730F4F0E0E456F94F808147
:1042400090E008958FEF9FEF08959091AC058091D5
:10425000AB05981750F4E92FF0E0E456F94F2081B0
:1042600030E09F5F9093AC0502C02FEF3FEFC90194
:1042700008958091AB0590E02091AC05821B9109D7
:104280000895CF93DF93CB01EA01642F7BDFCE014A
:10429000DF91CF910895CF93DF931F92CDB7DEB713
:1042A000698361E0CE0101966DDF81E090E00F90BF
:1042B000DF91CF910895089580E090E008950E94E5
:1042C000B8301F920F920FB60F9211240BB60F92B7
:1042D0002F933F934F935F936F937F938F939F930E
:1042E000AF93BF93EF93FF938EE297E07ADEFF9157
:1042F000EF91BF91AF919F918F917F916F915F915E
:104300004F913F912F910F900BBE0F900FBE0F90CA
:104310001F9018951F920F920FB60F9211240BB693
:104320000F922F938F939F93EF93FF93E0913E070C
:10433000F0913F078081E0914407F091450782FDAD
:1043400012C09081809147078F5F8F73209148073B
:10435000821751F0E0914707F0E0E25DF84F958F4A
:104360008093470701C08081FF91EF919F918F91CA
:104370002F910F900BBE0F900FBE0F901F901895AE
:104380001F920F920FB60F9211240BB60F922F931C
:104390003F934F935F936F937F938F939F93AF93CD
:1043A000BF93EF93FF938091B900887F803609F423
:1043B0009CC068F5883209F45BC090F4803109F440
:1043C00054C038F4882309F4F6C0883009F44DC08D
:1043D000F5C0883109F44CC0803209F45DC0EEC0EC
:1043E000803409F468C048F4803309F455C0883338
:1043F00009F0E4C08093FF06D8C0803509F44FC0AF
:10440000883509F45DC0883409F0D8C0D6C0883931
:1044100009F4C7C0A8F4883709F467C038F48836AF
:1044200009F463C0803709F460C0C8C0883809F453
:10443000B8C0803909F45FC0803809F0BFC05BC0E4
:10444000803B09F486C038F4803A09F466C0883AA3
:1044500009F47FC0B3C0803C09F4A7C0883C09F4CC
:10446000A4C0883B09F48AC0A9C08091220710C06B
:104470009091210780912007981770F5E09121070E
:1044800081E08E0F80932107F0E0E050F94F8081AA
:104490008093BB0085EC86C08093FF068EC0E091C0
:1044A000210781E08E0F809321078091BB00F0E00F
:1044B000E050F94F808390912107809120076EC0D2
:1044C000E091210781E08E0F809321078091BB004E
:1044D000F0E0E050F94F80838091A70581116DC015
:1044E00081E08093A60584EA61C083E08093A805FB
:1044F0001092FE06CFCF8091FE06803208F051C0A8
:10450000E091FE0681E08E0F8093FE068091BB0055
:10451000F0E0E252F94F8083BDCF85EC8093BC0080
:104520001092A8058091FE06803230F4E091FE06DC
:10453000F0E0E252F94F10826091FE0670E0E091E7
:10454000A205F091A3058EED96E019951092FE0656
:1045500035C084E08093A8051092DD061092DC0639
:10456000E091A405F091A50519958091DC068111D3
:1045700005C081E08093DC061092BC06E091DD0668
:1045800081E08E0F8093DD06F0E0E454F94F8081E6
:104590008093BB009091DD068091DC06981708F4AB
:1045A00079CF85E88093BC0009C085EC8093BC007E
:1045B0001092A80503C01092FF06DADDFF91EF917B
:1045C000BF91AF919F918F917F916F915F914F912B
:1045D0003F912F910F900BBE0F900FBE0F901F9029
:1045E00018951F93DC01FB017C9111964C9111975A
:1045F00012961C91972F9F71990F990F990F35E57E
:10460000292F239F020E20E0211D1124822F672FC6
:104610006074572F507277FD1FC061110AC051118D
:1046200003C0922F909511C025E5280F90E08BEAEA
:1046300034C051110DC0392F2AEA329F030E30E0E9
:10464000311D11249BEA931B280F892F90E025C070
:1046500090E02095982F0FC0611112C051110DC02C
:10466000392F2AEA329F030E30E0311D11242BEA44
:10467000231B95E5930F80E010C0922F90950CC0FE
:10468000511104C025E5280F9BEA04C02AEA280F2F
:1046900090E0932F981B822F20E04F3F09F427C012
:1046A000442311F1882331F0382F349F030E30E07A
:1046B000311D832F222321F0249F020E20E0211D93
:1046C000992331F0392F349F030E30E0311D932FA1
:1046D0001124342F3095339F030E30E0311D112407
:1046E000830F230F930F03C09FEF2FEF8FEF1F3F19
:1046F00009F424C030E0112321F0119F312D09F07D
:104700003F5F3323C1F0882331F0482F439F040ECD
:1047100040E0411D842F222321F0239F020E20E040
:10472000211D992331F0492F439F040E40E0411D84
:10473000942F112403C090E020E080E08083218347
:1047400092831F9108950F931F93CF93DF9320912E
:104750009B062F5F322F377030939B0620FF02C0DD
:1047600020E801C020E031FD2064347009F02062AF
:10477000205FFC01EC01239600E011E064856623D4
:1047800031F070E0C8010E94622F6F5F01C060E0ED
:104790006187322F369F030E30E0311D1124311115
:1047A00002C0168202C031503683662311F0615078
:1047B00061873196CE17DF0709F7DF91CF911F91FF
:1047C0000F910895CF93DF93EC014ED179836883E5
:1047D000DF91CF910895CF93DF93EC0145D12881EC
:1047E0003981621B730B6A307105C0F3DF91CF9181
:1047F0000895FC017183608353834283178216827C
:1048000084E198E09187808735832483738762876A
:104810005587448737872687089520E0DC0160FFAD
:1048200003C001C02D932D936250E0F77040D0F784
:104830000895CF93DF93EC010E94CF0B8EE295E0B9
:104840009983888381E190E09E878D878CE297E051
:104850009C878B871F8A1B8A1C8A1D8A1E8A88E276
:1048600090E0A0E0B0E08F87988BA98BBA8B81E0B5
:10487000888FDF91CF910895009761F0FC0101903E
:104880000020E9F73197AF01481B590BBC018EE2BC
:1048900097E037CB80E090E00895CF93DF93C0910D
:1048A0002707D0912807209781F08A819B81009764
:1048B00041F06D857E859B01220F331F620F731FB0
:1048C000ACDF0C80DD81C02DEECFDF91CF9108955C
:1048D000EF92FF920F931F93CF93DF938C01EB0125
:1048E0007A01141615061CF07B01C0E0D0E0D80157
:1048F000ED91FC910480F581E02DC8011995CE0160
:10490000880F991FC80FD91FCC5ED74FF801D383EA
:10491000C283F686E5860190F081E02D0284F3855E
:10492000E02DC8011995009701F19C0140E050E08D
:1049300060E472E48FE090E00E94DF2C8091DA075F
:104940009091DB07A091DC07B091DD0782179307F8
:10495000A407B50710F4DA01C9018093DA07909330
:10496000DB07A093DC07B093DD07C801DF91CF918F
:104970001F910F91FF90EF90089590E0FC01E25598
:10498000FE4F4491FC01E859FE4F2491FC01EE5D7D
:10499000FE4F9491992309F466C0442309F455C04D
:1049A00050E0FA013197E231F10508F04EC0882756
:1049B000EE58FF4F8F4F0C94752F809180008F77AA
:1049C00007C0809180008F7D03C080918000877F29
:1049D000809380003AC084B58F7702C084B58F7D04
:1049E00084BD33C08091B0008F7703C08091B00048
:1049F0008F7D8093B00029C0809190008F7707C091
:104A0000809190008F7D03C080919000877F80937C
:104A100090001BC08091A0008F7707C08091A000FC
:104A20008F7D03C08091A000877F8093A0000DC080
:104A3000809120018F7707C0809120018F7D03C076
:104A400080912001877F80932001E92FF0E0EE0F15
:104A5000FF1FE85FFE4FA591B4918FB7F894EC91DA
:104A6000E22BEC938FBF08953FB7F8948091EF0D40
:104A70009091F00DA091F10DB091F20D26B5A89B8B
:104A800005C02F3F19F00196A11DB11D3FBFBA2FE0
:104A9000A92F982F8827820F911DA11DB11DBC0140
:104AA000CD0142E0660F771F881F991F4A95D1F705
:104AB00008952FB7F894609123077091240780918F
:104AC0002507909126072FBF08953F924F925F923E
:104AD0006F927F928F929F92AF92BF92CF92DF920E
:104AE000EF92FF920F931F93CF93DF9300D0CDB738
:104AF000DEB7F82E8091DA079091DB07A091DC07F2
:104B0000B091DD07892B8A2B8B2BE1F0ADDF009173
:104B1000F90D1091FA0D2091FB0D3091FC0DDC0187
:104B2000CB01801B910BA20BB30B0091DA07109104
:104B3000DB072091DC073091DD0780179107A20782
:104B4000B307C0F291DF6093F90D7093FA0D809373
:104B5000FB0D9093FC0DE091E207F091E307309795
:104B600059F04091DE075091DF076091E0077091A6
:104B7000E1078F2D1995F82E00912707109128072E
:104B80004F2C512C612C712C0115110509F45FC0BB
:104B9000D8011C96EC901C978091D8079091D9076A
:104BA0008436910510F41C961C92D801ED91FC916D
:104BB000A280B38019821A821B82F11014C0F801FE
:104BC00045855685628173819E012F5F3F4FC801E5
:104BD000F5011995D8011C96EC921C9714960D912D
:104BE0001C911597D1CFF8013696CE0101966C0134
:104BF000480199E0890E911C2191222309F132800C
:104C00003320F1F0822F90E0A0E0B0E09C01AD01F4
:104C10002F5F3F4F4F4F5F4FC301B2010E94532F91
:104C20009B01AC01832D90E0A0E0B0E0BC01CD0180
:104C30006F5F7F4F8F4F9F4F0E94532FD6018C93F2
:104C4000BFEFCB1ADB0AE815F905B1F6B8CF8091B2
:104C5000F70D9091F80D8C010F5F1F4F1093F80D19
:104C60000093F70D499784F124DF4B015C0188EE36
:104C700093E0089FB001099F700D189F700D1124DB
:104C8000072E000C880B990BC090F30DD090F40DFB
:104C9000E090F50DF090F60DA50194012C193D0959
:104CA0004E095F09B8D63093D9072093D8071092E0
:104CB000F80D1092F70DFDDE6093F30D7093F40D77
:104CC0008093F50D9093F60D0F900F900F90DF915C
:104CD000CF911F910F91FF90EF90DF90CF90BF90F9
:104CE000AF909F908F907F906F905F904F903F908C
:104CF00008951F920F920FB60F9211242F933F9396
:104D00008F939F93AF93BF93809123079091240734
:104D1000A0912507B09126073091EE0D23E0230FD7
:104D20002D3720F40196A11DB11D05C026E8230FE3
:104D30000296A11DB11D2093EE0D80932307909341
:104D40002407A0932507B09326078091EF0D90913B
:104D5000F00DA091F10DB091F20D0196A11DB11DC4
:104D60008093EF0D9093F00DA093F10DB093F20DA1
:104D7000BF91AF919F918F913F912F910F900FBE57
:104D80000F901F901895CF93DF93CDB7DEB7A39701
:104D90000FB6F894DEBF0FBECDBF789484B58260A5
:104DA00084BD84B5816084BD85B5826085BD85B5CF
:104DB000816085BD80916E00816080936E0010924D
:104DC00081008091810082608093810080918100C8
:104DD0008160809381008091800081608093800059
:104DE0008091B10084608093B1008091B0008160B7
:104DF0008093B000809191008260809391008091B7
:104E000091008160809391008091900081608093F7
:104E100090008091A10082608093A1008091A10008
:104E200081608093A1008091A00081608093A000A8
:104E30008091210182608093210180912101816014
:104E400080932101809120018160809320018091D5
:104E50007A00846080937A0080917A0082608093E7
:104E60007A0080917A00816080937A0080917A0044
:104E7000806880937A001092C100E0913E07F09123
:104E80003F0782E08083E0913A07F0913B07108270
:104E9000E0913C07F0913D078FEC8083109246072C
:104EA000E0914207F091430786E08083E09140075C
:104EB000F0914107808180618083E0914007F0910B
:104EC0004107808188608083E0914007F09141072D
:104ED000808180688083E0914007F0914107808164
:104EE0008F7D80831092AC051092AB051092AA05BD
:104EF0001092A9051092A80511E01093A705109231
:104F0000A60584E13ADD85E138DD8091B9008E7F28
:104F10008093B9008091B9008D7F8093B90088E4B7
:104F20008093B80085E48093BC008AEE90E2909371
:104F3000A5058093A4058BEE90E29093A305809342
:104F4000A20580E18093BA008AE294E09093AE05D6
:104F50008093AD058091C005811110C08FEA95E066
:104F60000E949E0B1092BF051092BE058AE694E047
:104F70009093B0058093AF051093C00541E150E0D8
:104F800060E070E08FEA95E0A3DC8091D9058111A3
:104F900011C088EC95E00E949E0B1092D8051092EB
:104FA000D7058CE794E09093C9058093C80581E00C
:104FB0008093D90542E250E061E170E088EC95E031
:104FC00087DC8091F205811111C081EE95E00E948D
:104FD0009E0B1092F1051092F0058EE894E09093EC
:104FE000E2058093E10581E08093F20542E250E022
:104FF00063E370E081EE95E06BDC80910B0681113C
:1050000011C08AEF95E00E949E0B10920A06109242
:10501000090680EA94E09093FB058093FA0581E00D
:1050200080930B0641E150E065E570E08AEF95E082
:105030004FDC80912406811111C083E196E00E942B
:105040009E0B109223061092220682EB94E090931E
:1050500014068093130681E08093240642E250E018
:1050600066E670E083E196E033DC80913D068111D5
:1050700011C08CE296E00E949E0B10923C061092AA
:105080003B0684EC94E090932D0680932C0681E0FF
:1050900080933D0642E250E068E870E08CE296E0E2
:1050A00017DC80915606811111C085E496E00E94BC
:1050B0009E0B109255061092540686ED94E0909344
:1050C00046068093450681E08093560642E250E012
:1050D0006AEA70E085E496E0FBDB80916F0681115F
:1050E00011C08EE596E00E949E0B10926E06109203
:1050F0006D0688EE94E090935F0680935E0681E0F3
:1051000080936F0642E250E06CEC70E08EE596E032
:10511000DFDB80918806811111C087E796E00E944D
:105120009E0B10928706109286068AEF94E0909369
:1051300078068093770681E08093880640E051E00E
:105140006EEE70E087E796E0C3DB84E68093D707D6
:10515000A4DB8091D707B9DC8AE895E08DDB87E88E
:1051600095E08ADB22242A94322CF6E94F2E512C2A
:10517000612C712CA2E38A2E912CA12CB12C99DCEC
:1051800098DC20912907422F50E0209106023091AF
:1051900007024217530731F10091900610919106D2
:1051A00020919206309193066B017C01C01AD10ABE
:1051B000E20AF30A9701860105361105210531053A
:1051C00088F0509307024093060260939006709314
:1051D000910680939206909393065093990640937C
:1051E000980630C020912D07422F50E020910002F8
:1051F000309101024217530771F10091900610910E
:10520000910620919206309193066B017C01C01AA1
:10521000D10AE20AF30A9701860105361105210534
:105220003105C8F05093010240930002609390064C
:1052300070939106809392069093930650939506EF
:1052400040939406309205022092040230920302A9
:105250002092020254C080912B0790E08430910587
:1052600014F083E090E0209104023091050282174F
:10527000930749F0909305028093040210929706D9
:1052800010929606E3CF80912A0790E0853691052B
:1052900014F084E690E0209102023091030282171C
:1052A000930769F1909303028093020264E670E031
:1052B000681B790B072E000C880B990BE1D4E09149
:1052C000EA07F091EB076683778380879187E09107
:1052D000E40DF091E50D6683778380879187E091F7
:1052E0000A08F0910B086683778380879187E091A5
:1052F000FA07F091FB076683778380879187809117
:1053000098069091990620919606309197068217FB
:10531000930739F42091940630919506232B09F4D4
:1053200019C2909397068093960610929506109254
:10533000940689E995E0A0DAC0909606D090970689
:105340000D2C000CEE08FF08F7FE21C06DE28EE286
:1053500097E00E94132022273327A9012C193D0929
:105360004E095F0919A28E010F5D1F4FCA01B901D5
:105370002AE030E040E050E04ED3605DF8016293F7
:105380008F01211531054105510581F716C0A7018F
:10539000960119A28E010F5D1F4FCA01B9012AE0C3
:1053A00030E040E050E037D3605DF80162938F0158
:1053B000211531054105510581F7C8015DDA87E8FE
:1053C00095E05ADA8091EA079091EB0748D68091F0
:1053D000E40D9091E50D43D680910A0890910B0859
:1053E0003ED68091FA079091FB0739D61092EB07D1
:1053F0001092EA071092E50D1092E40D10920B083E
:1054000010920A081092FB071092FA0746DA809170
:10541000960690919706009771F50E94E60B90937F
:10542000EB078093EA078BE090E081D58C010E9426
:10543000CF0B7CE0E72E75E0F72EF801F182E082D9
:105440001093E50D0093E40D8BE090E070D58C0196
:105450000E94CF0BF801F182E08210930B080093B9
:105460000A088BE090E063D58C010E94CF0BF80115
:10547000F182E0826BC18930910569F40E94E60BEC
:105480009093EB078093EA070E94110C9093E50D2F
:105490008093E40D2AC08D30910509F045C00E942B
:1054A000E60B9093EB078093EA078AE190E03FD503
:1054B0008C010E94CF0B88E195E0F80191838083F5
:1054C000CC24C394C38644865586668677868EE14F
:1054D00090E0918B808B128A138A148A158A118E20
:1054E000108E1093E50D0093E40D0E94110C909323
:1054F0000B0880930A0888E190E019D58C010E947E
:10550000CF0B82E195E0F8019183808383869486B6
:10551000A586B6868786908AA18AB28A138A148A5B
:10552000158A168A178A12C18B30910569F50E9477
:10553000E60B9093EB078093EA070E94110C90937F
:10554000E50D8093E40D8AE190E0F1D48C010E9496
:10555000CF0B88E195E0F80191838083CC24C3943C
:10556000C38644865586668677868EE190E0918B69
:10557000808B128A138A148A158A118E108E1093CA
:105580000B0800930A08B7CF8C309105E1F50E9413
:10559000E60B9093EB078093EA078AE190E0C7D48B
:1055A0008C010E94CF0B58E1C52E55E0D52EF80195
:1055B000D182C082EE24E394E386448655866686D3
:1055C00077866EE1E62EF12CF18AE08A128A138A40
:1055D000148A158A118E108E1093E50D0093E40D38
:1055E0000E94110C90930B0880930A088AE190E0C6
:1055F0009ED48C010E94CF0BF801D182C082CC24B2
:10560000C394C3863DC08A30910509F046C00E940C
:10561000E60B9093EB078093EA070E94110C90939E
:10562000E50D8093E40D8AE190E081D48C010E9425
:10563000CF0B38E1C32E35E0D32EF801D182C082E2
:10564000EE24E394E38644865586668677864EE1AB
:10565000E42EF12CF18AE08A128A138A148A158AC0
:10566000118E108E10930B0800930A088AE190E0C7
:105670005ED48C010E94CF0BF801D182C0821386C8
:105680004486558666867786F18AE08A128A138A6E
:10569000148A158A118E108E59C088309105C9F46C
:1056A0000E94E60B9093EB078093EA070E94110C8F
:1056B0009093E50D8093E40D0E94110C90930B08DC
:1056C00080930A080E94110C9093FB078093FA07BD
:1056D00041C00F9709F03EC085E190E028D48C01CD
:1056E0000E94CF0B9EE1C92E95E0D92EF801D18200
:1056F000C0822CE2E22E27E0F22EF486E38641E01F
:1057000050E05687458782E390E0908B8787118A27
:10571000128A138A148A1093EB070093EA0789E12F
:1057200090E005D48C0185D81093E50D0093E40D2D
:1057300089E190E0FCD38C017CD810930B08009396
:105740000A0889E190E0F3D38C0173D81093FB072A
:105750000093FA0780E2C82E85E0D82EF12CF601DE
:10576000A191B1916F01109741F116968D919C9185
:1057700017970097A1F318966D917C911997FC01EA
:1057800020813181F9010190F081E02D1A960C9170
:105790001A971B961C911B971C962C911C971D9673
:1057A0003C911D971E964C911E971F965C911995E2
:1057B0008823A9F2FF24F394D2CFFF2019F080911F
:1057C000D70783D98EE297E00E94DC1F892B81F1F5
:1057D00018E78EE297E00E94DC1F892BA9F08EE289
:1057E00097E00E94BA1F182F3FD96B017C013CD96A
:1057F000DC01CB018C199D09AE09BF09883E93409D
:10580000A105B10530F7F3CF103329F410929906B2
:10581000109298060DC0113319F488E090E004C08E
:10582000173331F48FE090E09093990680939806B7
:105830000E948020A4CCEEE2F7E01382128288EE70
:1058400093E0A0E0B0E084839583A683B78324E34C
:1058500035E03183208325EC30E03587248724EC44
:1058600030E03787268720EC30E0318B208B21EC2D
:1058700030E0338B228B22EC30E0358B248B26EC0E
:1058800030E0378B268B118E128E138E148EEBEC3C
:10589000F7E01382128284839583A683B78386E41C
:1058A00095E091838083E7EDF7E08FEF80831282AC
:1058B0001182148613868FEF9FEFDC018783908718
:1058C000A187B28721E130E045E550E060E070E07B
:1058D0008EED9DE00E94F92321E130E04AEA50E09C
:1058E00065E570E084E098E00E94F92321E130E072
:1058F0004EEE50E06AEA70E084EF97E00E94F923F0
:1059000020E130E04EEE51E06EEE70E084EE97E084
:105910000C94F9238F929F92AF92BF92CF92DF9215
:10592000EF92FF92CF93DF93EC01688179818A81B6
:105930009B81611571058105910521F464E279ED82
:105940008BE597E02DE133EF41E050E038D049019D
:105950005A019B01AC01A7EAB1E44DD06B017C0177
:10596000ACEEB4EFA501940152D0DC01CB018C0D5B
:105970009D1DAE1DBF1DB7FF03C00197A109B04813
:1059800088839983AA83BB839F77DF91CF91FF9010
:10599000EF90DF90CF90BF90AF909F908F90089541
:1059A000B9CF88E092E0B6CFA0E0B0E080930802E3
:1059B00090930902A0930A02B0930B020895052E5A
:1059C00097FB16F400940FD057FD05D024D007FCA8
:1059D00002D046F408C050954095309521953F4F30
:1059E0004F4F5F4F089590958095709561957F4FCB
:1059F0008F4F9F4F089531D0A59F900DB49F900D6C
:105A0000A49F800D911D11240895B7FFF4CFF3DFFB
:105A1000821B930B0895A1E21A2EAA1BBB1BFD014A
:105A20000DC0AA1FBB1FEE1FFF1FA217B307E4077D
:105A3000F50720F0A21BB30BE40BF50B661F771FD5
:105A4000881F991F1A9469F76095709580959095B5
:105A50009B01AC01BD01CF010895A29FB001B39F8E
:105A6000C001A39F700D811D1124911DB29F700D67
:105A7000811D1124911D08955058BB27AA270ED0CF
:105A800075C166D130F06BD120F031F49F3F11F435
:105A90001EF45BC10EF4E095E7FB51C1E92F77D10D
:105AA00080F3BA17620773078407950718F071F43B
:105AB0009EF58FC10EF4E0950B2EBA2FA02D0B0191
:105AC000B90190010C01CA01A0011124FF27591B43
:105AD00099F0593F50F4503E68F11A16F040A22F49
